{
  "contractName": "Customer",
  "abi": [
    {
      "inputs": [
        {
          "internalType": "string",
          "name": "_name",
          "type": "string"
        },
        {
          "internalType": "uint256",
          "name": "_price",
          "type": "uint256"
        },
        {
          "internalType": "string",
          "name": "_category",
          "type": "string"
        },
        {
          "internalType": "uint256",
          "name": "_amount",
          "type": "uint256"
        }
      ],
      "name": "createProduct",
      "outputs": [],
      "stateMutability": "nonpayable",
      "type": "function"
    },
    {
      "inputs": [
        {
          "internalType": "address",
          "name": "",
          "type": "address"
        }
      ],
      "name": "customer_map",
      "outputs": [
        {
          "internalType": "uint256",
          "name": "customer_id",
          "type": "uint256"
        },
        {
          "internalType": "string",
          "name": "customer_name",
          "type": "string"
        },
        {
          "internalType": "address",
          "name": "customer_add",
          "type": "address"
        },
        {
          "internalType": "uint256",
          "name": "product_feedback",
          "type": "uint256"
        },
        {
          "internalType": "uint256",
          "name": "delivery_feedback",
          "type": "uint256"
        },
        {
          "internalType": "address",
          "name": "farmer_address",
          "type": "address"
        },
        {
          "internalType": "string",
          "name": "email",
          "type": "string"
        },
        {
          "internalType": "string",
          "name": "location",
          "type": "string"
        },
        {
          "internalType": "string",
          "name": "phone",
          "type": "string"
        }
      ],
      "stateMutability": "view",
      "type": "function"
    },
    {
      "inputs": [
        {
          "internalType": "address",
          "name": "",
          "type": "address"
        }
      ],
      "name": "distributor_map",
      "outputs": [
        {
          "internalType": "uint256",
          "name": "distributor_id",
          "type": "uint256"
        },
        {
          "internalType": "string",
          "name": "distributor_name",
          "type": "string"
        },
        {
          "internalType": "address",
          "name": "distributor_add",
          "type": "address"
        },
        {
          "internalType": "uint256",
          "name": "distributor_rating",
          "type": "uint256"
        },
        {
          "internalType": "string",
          "name": "distributor_phone",
          "type": "string"
        },
        {
          "internalType": "string",
          "name": "distributor_email",
          "type": "string"
        }
      ],
      "stateMutability": "view",
      "type": "function"
    },
    {
      "inputs": [
        {
          "internalType": "address",
          "name": "",
          "type": "address"
        }
      ],
      "name": "farmer_map",
      "outputs": [
        {
          "internalType": "uint256",
          "name": "farmer_id",
          "type": "uint256"
        },
        {
          "internalType": "string",
          "name": "farmer_name",
          "type": "string"
        },
        {
          "internalType": "address",
          "name": "farmer_add",
          "type": "address"
        },
        {
          "internalType": "address",
          "name": "distributor_add",
          "type": "address"
        },
        {
          "internalType": "uint256",
          "name": "rating",
          "type": "uint256"
        },
        {
          "internalType": "string",
          "name": "farmer_location",
          "type": "string"
        },
        {
          "internalType": "string",
          "name": "farmer_phone",
          "type": "string"
        },
        {
          "internalType": "string",
          "name": "farmer_email",
          "type": "string"
        }
      ],
      "stateMutability": "view",
      "type": "function"
    },
    {
      "inputs": [
        {
          "internalType": "uint256",
          "name": "",
          "type": "uint256"
        }
      ],
      "name": "order_map",
      "outputs": [
        {
          "internalType": "uint256",
          "name": "order_id",
          "type": "uint256"
        },
        {
          "internalType": "uint256",
          "name": "order_price",
          "type": "uint256"
        },
        {
          "internalType": "bool",
          "name": "status",
          "type": "bool"
        },
        {
          "internalType": "address",
          "name": "farmer_address",
          "type": "address"
        },
        {
          "internalType": "address",
          "name": "customer_address",
          "type": "address"
        }
      ],
      "stateMutability": "view",
      "type": "function"
    },
    {
      "inputs": [
        {
          "internalType": "address",
          "name": "",
          "type": "address"
        }
      ],
      "name": "order_price_map",
      "outputs": [
        {
          "internalType": "uint256",
          "name": "",
          "type": "uint256"
        }
      ],
      "stateMutability": "view",
      "type": "function"
    },
    {
      "inputs": [
        {
          "internalType": "uint256[]",
          "name": "_products",
          "type": "uint256[]"
        },
        {
          "internalType": "address",
          "name": "_customerAddress",
          "type": "address"
        },
        {
          "internalType": "address",
          "name": "_farmerAddress",
          "type": "address"
        }
      ],
      "name": "processOrder",
      "outputs": [],
      "stateMutability": "nonpayable",
      "type": "function"
    },
    {
      "inputs": [
        {
          "internalType": "uint256",
          "name": "",
          "type": "uint256"
        }
      ],
      "name": "product_map",
      "outputs": [
        {
          "internalType": "uint256",
          "name": "product_id",
          "type": "uint256"
        },
        {
          "internalType": "string",
          "name": "product_name",
          "type": "string"
        },
        {
          "internalType": "uint256",
          "name": "product_price",
          "type": "uint256"
        },
        {
          "internalType": "uint256",
          "name": "product_amount",
          "type": "uint256"
        },
        {
          "internalType": "string",
          "name": "product_category",
          "type": "string"
        },
        {
          "internalType": "bool",
          "name": "isAuthorised",
          "type": "bool"
        },
        {
          "internalType": "address",
          "name": "owner",
          "type": "address"
        }
      ],
      "stateMutability": "view",
      "type": "function"
    },
    {
      "inputs": [
        {
          "internalType": "string",
          "name": "_name",
          "type": "string"
        },
        {
          "internalType": "string",
          "name": "_phone",
          "type": "string"
        },
        {
          "internalType": "string",
          "name": "_email",
          "type": "string"
        }
      ],
      "name": "setDetails",
      "outputs": [],
      "stateMutability": "nonpayable",
      "type": "function"
    },
    {
      "inputs": [
        {
          "internalType": "address payable",
          "name": "_distributorAddress",
          "type": "address"
        }
      ],
      "name": "setDistributor",
      "outputs": [],
      "stateMutability": "nonpayable",
      "type": "function"
    },
    {
      "inputs": [
        {
          "internalType": "string",
          "name": "_name",
          "type": "string"
        },
        {
          "internalType": "string",
          "name": "_location",
          "type": "string"
        },
        {
          "internalType": "string",
          "name": "_phone",
          "type": "string"
        },
        {
          "internalType": "string",
          "name": "_email",
          "type": "string"
        }
      ],
      "name": "setFarmerDetails",
      "outputs": [],
      "stateMutability": "nonpayable",
      "type": "function"
    },
    {
      "inputs": [],
      "name": "viewProductsFarmer",
      "outputs": [
        {
          "components": [
            {
              "internalType": "uint256",
              "name": "product_id",
              "type": "uint256"
            },
            {
              "internalType": "string",
              "name": "product_name",
              "type": "string"
            },
            {
              "internalType": "uint256",
              "name": "product_price",
              "type": "uint256"
            },
            {
              "internalType": "uint256",
              "name": "product_amount",
              "type": "uint256"
            },
            {
              "internalType": "string",
              "name": "product_category",
              "type": "string"
            },
            {
              "internalType": "bool",
              "name": "isAuthorised",
              "type": "bool"
            },
            {
              "internalType": "address",
              "name": "owner",
              "type": "address"
            }
          ],
          "internalType": "struct Product.product[]",
          "name": "",
          "type": "tuple[]"
        }
      ],
      "stateMutability": "view",
      "type": "function"
    },
    {
      "inputs": [
        {
          "internalType": "string",
          "name": "_name",
          "type": "string"
        },
        {
          "internalType": "string",
          "name": "_location",
          "type": "string"
        },
        {
          "internalType": "string",
          "name": "_phone",
          "type": "string"
        },
        {
          "internalType": "uint256",
          "name": "_product_feedback",
          "type": "uint256"
        },
        {
          "internalType": "uint256",
          "name": "_delivery_feedback",
          "type": "uint256"
        },
        {
          "internalType": "string",
          "name": "_email",
          "type": "string"
        }
      ],
      "name": "setCustomerDetails",
      "outputs": [],
      "stateMutability": "nonpayable",
      "type": "function"
    },
    {
      "inputs": [
        {
          "internalType": "uint256",
          "name": "_pid",
          "type": "uint256"
        },
        {
          "internalType": "address",
          "name": "_farmer",
          "type": "address"
        }
      ],
      "name": "addProduct",
      "outputs": [],
      "stateMutability": "nonpayable",
      "type": "function"
    },
    {
      "inputs": [],
      "name": "viewProductsCustomer",
      "outputs": [
        {
          "internalType": "uint256[]",
          "name": "",
          "type": "uint256[]"
        }
      ],
      "stateMutability": "view",
      "type": "function"
    },
    {
      "inputs": [
        {
          "internalType": "address",
          "name": "_farmerAddress",
          "type": "address"
        }
      ],
      "name": "confirmOrder",
      "outputs": [],
      "stateMutability": "nonpayable",
      "type": "function"
    }
  ],
  "bytecode": "0x608060405234801561001057600080fd5b506000600560003373ffffffffffffffffffffffffffffffffffffffff1673ffffffffffffffffffffffffffffffffffffffff1681526020019081526020016000209050338160020160006101000a81548173ffffffffffffffffffffffffffffffffffffffff021916908373ffffffffffffffffffffffffffffffffffffffff16021790555050612af6806100a76000396000f3fe608060405234801561001057600080fd5b50600436106101005760003560e01c80638fdbffe711610097578063dd57cd4611610066578063dd57cd46146102d4578063dec3a601146102f0578063f0da708714610325578063ffdf34521461034157610100565b80638fdbffe71461021b5780639176293b14610252578063a06fc34614610282578063c013435f1461029e57610100565b806375619ab5116100d357806375619ab5146101915780637ee9e2d8146101ad57806382b90578146101c957806388c9a00c146101e757610100565b80632443010f1461010557806335e0e59e146101215780635fc412ec1461013d5780636f4d0f6c14610159575b600080fd5b61011f600480360381019061011a9190611dab565b61035f565b005b61013b60048036038101906101369190611ea8565b610475565b005b610157600480360381019061015291906120a5565b610589565b005b610173600480360381019061016e9190612114565b610862565b604051610188999897969594939291906121e7565b60405180910390f35b6101ab60048036038101906101a691906122ce565b610b10565b005b6101c760048036038101906101c29190612114565b610b9a565b005b6101d1610cab565b6040516101de91906123b9565b60405180910390f35b61020160048036038101906101fc91906123db565b610d43565b604051610212959493929190612423565b60405180910390f35b61023560048036038101906102309190612114565b610dc6565b604051610249989796959493929190612476565b60405180910390f35b61026c60048036038101906102679190612114565b61106e565b6040516102799190612510565b60405180910390f35b61029c6004803603810190610297919061252b565b611086565b005b6102b860048036038101906102b391906123db565b6112ae565b6040516102cb97969594939291906125ca565b60405180910390f35b6102ee60048036038101906102e99190612647565b61142d565b005b61030a60048036038101906103059190612114565b61154f565b60405161031c96959493929190612687565b60405180910390f35b61033f600480360381019061033a91906126fd565b611743565b005b6103496117fa565b6040516103569190612971565b60405180910390f35b6000600b60003373ffffffffffffffffffffffffffffffffffffffff1673ffffffffffffffffffffffffffffffffffffffff1681526020019081526020016000209050338160020160006101000a81548173ffffffffffffffffffffffffffffffffffffffff021916908373ffffffffffffffffffffffffffffffffffffffff160217905550600860008154809291906103f8906129c2565b9190505550600854816000018190555084816008019080519060200190610420929190611a4c565b5086816001019080519060200190610439929190611a4c565b5085816007019080519060200190610452929190611a4c565b508181600601908051906020019061046b929190611a4c565b5050505050505050565b6000600760003373ffffffffffffffffffffffffffffffffffffffff1673ffffffffffffffffffffffffffffffffffffffff1681526020019081526020016000209050338160020160006101000a81548173ffffffffffffffffffffffffffffffffffffffff021916908373ffffffffffffffffffffffffffffffffffffffff1602179055506006600081548092919061050e906129c2565b91905055508181600701908051906020019061052b929190611a4c565b5060065481600001819055508281600601908051906020019061054f929190611a4c565b5084816001019080519060200190610568929190611a4c565b5083816005019080519060200190610581929190611a4c565b505050505050565b6002600081548092919061059c906129c2565b91905055506000600760008373ffffffffffffffffffffffffffffffffffffffff1673ffffffffffffffffffffffffffffffffffffffff1681526020019081526020016000209050600060036000600254815260200190815260200160002090506002548160000181905550838160050160006101000a81548173ffffffffffffffffffffffffffffffffffffffff021916908373ffffffffffffffffffffffffffffffffffffffff160217905550828160040160006101000a81548173ffffffffffffffffffffffffffffffffffffffff021916908373ffffffffffffffffffffffffffffffffffffffff160217905550848160030190805190602001906106a6929190611ad2565b506000600560008460030160009054906101000a900473ffffffffffffffffffffffffffffffffffffffff1673ffffffffffffffffffffffffffffffffffffffff1673ffffffffffffffffffffffffffffffffffffffff1681526020019081526020016000209050818160060160018160018154018082558091505003906000526020600020906006020160008201548160000155600182015481600101556002820160009054906101000a900460ff168160020160006101000a81548160ff0219169083151502179055506003820181600301908054610788929190611b1f565b506004820160009054906101000a900473ffffffffffffffffffffffffffffffffffffffff168160040160006101000a81548173ffffffffffffffffffffffffffffffffffffffff021916908373ffffffffffffffffffffffffffffffffffffffff1602179055506005820160009054906101000a900473ffffffffffffffffffffffffffffffffffffffff168160050160006101000a81548173ffffffffffffffffffffffffffffffffffffffff021916908373ffffffffffffffffffffffffffffffffffffffff160217905550905050505050505050565b600b60205280600052604060002060009150905080600001549080600101805461088b90612a39565b80601f01602080910402602001604051908101604052809291908181526020018280546108b790612a39565b80156109045780601f106108d957610100808354040283529160200191610904565b820191906000526020600020905b8154815290600101906020018083116108e757829003601f168201915b5050505050908060020160009054906101000a900473ffffffffffffffffffffffffffffffffffffffff16908060030154908060040154908060050160009054906101000a900473ffffffffffffffffffffffffffffffffffffffff169080600601805461097190612a39565b80601f016020809104026020016040519081016040528092919081815260200182805461099d90612a39565b80156109ea5780601f106109bf576101008083540402835291602001916109ea565b820191906000526020600020905b8154815290600101906020018083116109cd57829003601f168201915b5050505050908060070180546109ff90612a39565b80601f0160208091040260200160405190810160405280929190818152602001828054610a2b90612a39565b8015610a785780601f10610a4d57610100808354040283529160200191610a78565b820191906000526020600020905b815481529060010190602001808311610a5b57829003601f168201915b505050505090806008018054610a8d90612a39565b80601f0160208091040260200160405190810160405280929190818152602001828054610ab990612a39565b8015610b065780601f10610adb57610100808354040283529160200191610b06565b820191906000526020600020905b815481529060010190602001808311610ae957829003601f168201915b5050505050905089565b6000600760003373ffffffffffffffffffffffffffffffffffffffff1673ffffffffffffffffffffffffffffffffffffffff1681526020019081526020016000209050818160030160006101000a81548173ffffffffffffffffffffffffffffffffffffffff021916908373ffffffffffffffffffffffffffffffffffffffff1602179055505050565b6000600b60003373ffffffffffffffffffffffffffffffffffffffff1673ffffffffffffffffffffffffffffffffffffffff1681526020019081526020016000209050610c3a81600901805480602002602001604051908101604052809291908181526020018280548015610c2e57602002820191906000526020600020905b815481526020019060010190808311610c1a575b50505050503384610589565b60006003600060025481526020019081526020016000209050600c60003373ffffffffffffffffffffffffffffffffffffffff1673ffffffffffffffffffffffffffffffffffffffff1681526020019081526020016000205481600101819055508060010154600981905550505050565b6060600b60003373ffffffffffffffffffffffffffffffffffffffff1673ffffffffffffffffffffffffffffffffffffffff168152602001908152602001600020600901805480602002602001604051908101604052809291908181526020018280548015610d3957602002820191906000526020600020905b815481526020019060010190808311610d25575b5050505050905090565b60036020528060005260406000206000915090508060000154908060010154908060020160009054906101000a900460ff16908060040160009054906101000a900473ffffffffffffffffffffffffffffffffffffffff16908060050160009054906101000a900473ffffffffffffffffffffffffffffffffffffffff16905085565b6007602052806000526040600020600091509050806000015490806001018054610def90612a39565b80601f0160208091040260200160405190810160405280929190818152602001828054610e1b90612a39565b8015610e685780601f10610e3d57610100808354040283529160200191610e68565b820191906000526020600020905b815481529060010190602001808311610e4b57829003601f168201915b5050505050908060020160009054906101000a900473ffffffffffffffffffffffffffffffffffffffff16908060030160009054906101000a900473ffffffffffffffffffffffffffffffffffffffff1690806004015490806005018054610ecf90612a39565b80601f0160208091040260200160405190810160405280929190818152602001828054610efb90612a39565b8015610f485780601f10610f1d57610100808354040283529160200191610f48565b820191906000526020600020905b815481529060010190602001808311610f2b57829003601f168201915b505050505090806006018054610f5d90612a39565b80601f0160208091040260200160405190810160405280929190818152602001828054610f8990612a39565b8015610fd65780601f10610fab57610100808354040283529160200191610fd6565b820191906000526020600020905b815481529060010190602001808311610fb957829003601f168201915b505050505090806007018054610feb90612a39565b80601f016020809104026020016040519081016040528092919081815260200182805461101790612a39565b80156110645780601f1061103957610100808354040283529160200191611064565b820191906000526020600020905b81548152906001019060200180831161104757829003601f168201915b5050505050905088565b600c6020528060005260406000206000915090505481565b600080815480929190611098906129c2565b91905055506000600160008054815260200190815260200160002090506000548160000181905550848160010190805190602001906110d8929190611a4c565b50818160030181905550838160020181905550338160050160016101000a81548173ffffffffffffffffffffffffffffffffffffffff021916908373ffffffffffffffffffffffffffffffffffffffff16021790555082816004019080519060200190611146929190611a4c565b50600760003373ffffffffffffffffffffffffffffffffffffffff1673ffffffffffffffffffffffffffffffffffffffff1681526020019081526020016000206008018190806001815401808255809150506001900390600052602060002090600602016000909190919091506000820154816000015560018201816001019080546111d190612a39565b6111dc929190611b71565b506002820154816002015560038201548160030155600482018160040190805461120590612a39565b611210929190611b71565b506005820160009054906101000a900460ff168160050160006101000a81548160ff0219169083151502179055506005820160019054906101000a900473ffffffffffffffffffffffffffffffffffffffff168160050160016101000a81548173ffffffffffffffffffffffffffffffffffffffff021916908373ffffffffffffffffffffffffffffffffffffffff16021790555050505050505050565b60016020528060005260406000206000915090508060000154908060010180546112d790612a39565b80601f016020809104026020016040519081016040528092919081815260200182805461130390612a39565b80156113505780601f1061132557610100808354040283529160200191611350565b820191906000526020600020905b81548152906001019060200180831161133357829003601f168201915b50505050509080600201549080600301549080600401805461137190612a39565b80601f016020809104026020016040519081016040528092919081815260200182805461139d90612a39565b80156113ea5780601f106113bf576101008083540402835291602001916113ea565b820191906000526020600020905b8154815290600101906020018083116113cd57829003601f168201915b5050505050908060050160009054906101000a900460ff16908060050160019054906101000a900473ffffffffffffffffffffffffffffffffffffffff16905087565b6000600b60003373ffffffffffffffffffffffffffffffffffffffff1673ffffffffffffffffffffffffffffffffffffffff1681526020019081526020016000209050818160050160006101000a81548173ffffffffffffffffffffffffffffffffffffffff021916908373ffffffffffffffffffffffffffffffffffffffff160217905550806009018390806001815401808255809150506001900390600052602060002001600090919091909150556001600084815260200190815260200160002060020154600c60003373ffffffffffffffffffffffffffffffffffffffff1673ffffffffffffffffffffffffffffffffffffffff16815260200190815260200160002060008282546115439190612a6a565b92505081905550505050565b600560205280600052604060002060009150905080600001549080600101805461157890612a39565b80601f01602080910402602001604051908101604052809291908181526020018280546115a490612a39565b80156115f15780601f106115c6576101008083540402835291602001916115f1565b820191906000526020600020905b8154815290600101906020018083116115d457829003601f168201915b5050505050908060020160009054906101000a900473ffffffffffffffffffffffffffffffffffffffff169080600301549080600401805461163290612a39565b80601f016020809104026020016040519081016040528092919081815260200182805461165e90612a39565b80156116ab5780601f10611680576101008083540402835291602001916116ab565b820191906000526020600020905b81548152906001019060200180831161168e57829003601f168201915b5050505050908060050180546116c090612a39565b80601f01602080910402602001604051908101604052809291908181526020018280546116ec90612a39565b80156117395780601f1061170e57610100808354040283529160200191611739565b820191906000526020600020905b81548152906001019060200180831161171c57829003601f168201915b5050505050905086565b6000600560003373ffffffffffffffffffffffffffffffffffffffff1673ffffffffffffffffffffffffffffffffffffffff168152602001908152602001600020905060046000815480929190611799906129c2565b91905055506004548160000181905550838160010190805190602001906117c1929190611a4c565b50828160040190805190602001906117da929190611a4c565b50818160050190805190602001906117f3929190611a4c565b5050505050565b6060600760003373ffffffffffffffffffffffffffffffffffffffff1673ffffffffffffffffffffffffffffffffffffffff168152602001908152602001600020600801805480602002602001604051908101604052809291908181526020016000905b82821015611a4357838290600052602060002090600602016040518060e00160405290816000820154815260200160018201805461189b90612a39565b80601f01602080910402602001604051908101604052809291908181526020018280546118c790612a39565b80156119145780601f106118e957610100808354040283529160200191611914565b820191906000526020600020905b8154815290600101906020018083116118f757829003601f168201915b50505050508152602001600282015481526020016003820154815260200160048201805461194190612a39565b80601f016020809104026020016040519081016040528092919081815260200182805461196d90612a39565b80156119ba5780601f1061198f576101008083540402835291602001916119ba565b820191906000526020600020905b81548152906001019060200180831161199d57829003601f168201915b505050505081526020016005820160009054906101000a900460ff161515151581526020016005820160019054906101000a900473ffffffffffffffffffffffffffffffffffffffff1673ffffffffffffffffffffffffffffffffffffffff1673ffffffffffffffffffffffffffffffffffffffff16815250508152602001906001019061185e565b50505050905090565b828054611a5890612a39565b90600052602060002090601f016020900481019282611a7a5760008555611ac1565b82601f10611a9357805160ff1916838001178555611ac1565b82800160010185558215611ac1579182015b82811115611ac0578251825591602001919060010190611aa5565b5b509050611ace9190611bfe565b5090565b828054828255906000526020600020908101928215611b0e579160200282015b82811115611b0d578251825591602001919060010190611af2565b5b509050611b1b9190611bfe565b5090565b828054828255906000526020600020908101928215611b605760005260206000209182015b82811115611b5f578254825591600101919060010190611b44565b5b509050611b6d9190611bfe565b5090565b828054611b7d90612a39565b90600052602060002090601f016020900481019282611b9f5760008555611bed565b82601f10611bb05780548555611bed565b82800160010185558215611bed57600052602060002091601f016020900482015b82811115611bec578254825591600101919060010190611bd1565b5b509050611bfa9190611bfe565b5090565b5b80821115611c17576000816000905550600101611bff565b5090565b6000604051905090565b600080fd5b600080fd5b600080fd5b600080fd5b6000601f19601f8301169050919050565b7f4e487b7100000000000000000000000000000000000000000000000000000000600052604160045260246000fd5b611c8282611c39565b810181811067ffffffffffffffff82111715611ca157611ca0611c4a565b5b80604052505050565b6000611cb4611c1b565b9050611cc08282611c79565b919050565b600067ffffffffffffffff821115611ce057611cdf611c4a565b5b611ce982611c39565b9050602081019050919050565b82818337600083830152505050565b6000611d18611d1384611cc5565b611caa565b905082815260208101848484011115611d3457611d33611c34565b5b611d3f848285611cf6565b509392505050565b600082601f830112611d5c57611d5b611c2f565b5b8135611d6c848260208601611d05565b91505092915050565b6000819050919050565b611d8881611d75565b8114611d9357600080fd5b50565b600081359050611da581611d7f565b92915050565b60008060008060008060c08789031215611dc857611dc7611c25565b5b600087013567ffffffffffffffff811115611de657611de5611c2a565b5b611df289828a01611d47565b965050602087013567ffffffffffffffff811115611e1357611e12611c2a565b5b611e1f89828a01611d47565b955050604087013567ffffffffffffffff811115611e4057611e3f611c2a565b5b611e4c89828a01611d47565b9450506060611e5d89828a01611d96565b9350506080611e6e89828a01611d96565b92505060a087013567ffffffffffffffff811115611e8f57611e8e611c2a565b5b611e9b89828a01611d47565b9150509295509295509295565b60008060008060808587031215611ec257611ec1611c25565b5b600085013567ffffffffffffffff811115611ee057611edf611c2a565b5b611eec87828801611d47565b945050602085013567ffffffffffffffff811115611f0d57611f0c611c2a565b5b611f1987828801611d47565b935050604085013567ffffffffffffffff811115611f3a57611f39611c2a565b5b611f4687828801611d47565b925050606085013567ffffffffffffffff811115611f6757611f66611c2a565b5b611f7387828801611d47565b91505092959194509250565b600067ffffffffffffffff821115611f9a57611f99611c4a565b5b602082029050602081019050919050565b600080fd5b6000611fc3611fbe84611f7f565b611caa565b90508083825260208201905060208402830185811115611fe657611fe5611fab565b5b835b8181101561200f5780611ffb8882611d96565b845260208401935050602081019050611fe8565b5050509392505050565b600082601f83011261202e5761202d611c2f565b5b813561203e848260208601611fb0565b91505092915050565b600073ffffffffffffffffffffffffffffffffffffffff82169050919050565b600061207282612047565b9050919050565b61208281612067565b811461208d57600080fd5b50565b60008135905061209f81612079565b92915050565b6000806000606084860312156120be576120bd611c25565b5b600084013567ffffffffffffffff8111156120dc576120db611c2a565b5b6120e886828701612019565b93505060206120f986828701612090565b925050604061210a86828701612090565b9150509250925092565b60006020828403121561212a57612129611c25565b5b600061213884828501612090565b91505092915050565b61214a81611d75565b82525050565b600081519050919050565b600082825260208201905092915050565b60005b8381101561218a57808201518184015260208101905061216f565b83811115612199576000848401525b50505050565b60006121aa82612150565b6121b4818561215b565b93506121c481856020860161216c565b6121cd81611c39565b840191505092915050565b6121e181612067565b82525050565b6000610120820190506121fd600083018c612141565b818103602083015261220f818b61219f565b905061221e604083018a6121d8565b61222b6060830189612141565b6122386080830188612141565b61224560a08301876121d8565b81810360c0830152612257818661219f565b905081810360e083015261226b818561219f565b9050818103610100830152612280818461219f565b90509a9950505050505050505050565b600061229b82612047565b9050919050565b6122ab81612290565b81146122b657600080fd5b50565b6000813590506122c8816122a2565b92915050565b6000602082840312156122e4576122e3611c25565b5b60006122f2848285016122b9565b91505092915050565b600081519050919050565b600082825260208201905092915050565b6000819050602082019050919050565b61233081611d75565b82525050565b60006123428383612327565b60208301905092915050565b6000602082019050919050565b6000612366826122fb565b6123708185612306565b935061237b83612317565b8060005b838110156123ac5781516123938882612336565b975061239e8361234e565b92505060018101905061237f565b5085935050505092915050565b600060208201905081810360008301526123d3818461235b565b905092915050565b6000602082840312156123f1576123f0611c25565b5b60006123ff84828501611d96565b91505092915050565b60008115159050919050565b61241d81612408565b82525050565b600060a0820190506124386000830188612141565b6124456020830187612141565b6124526040830186612414565b61245f60608301856121d8565b61246c60808301846121d8565b9695505050505050565b60006101008201905061248c600083018b612141565b818103602083015261249e818a61219f565b90506124ad60408301896121d8565b6124ba60608301886121d8565b6124c76080830187612141565b81810360a08301526124d9818661219f565b905081810360c08301526124ed818561219f565b905081810360e0830152612501818461219f565b90509998505050505050505050565b60006020820190506125256000830184612141565b92915050565b6000806000806080858703121561254557612544611c25565b5b600085013567ffffffffffffffff81111561256357612562611c2a565b5b61256f87828801611d47565b945050602061258087828801611d96565b935050604085013567ffffffffffffffff8111156125a1576125a0611c2a565b5b6125ad87828801611d47565b92505060606125be87828801611d96565b91505092959194509250565b600060e0820190506125df600083018a612141565b81810360208301526125f1818961219f565b90506126006040830188612141565b61260d6060830187612141565b818103608083015261261f818661219f565b905061262e60a0830185612414565b61263b60c08301846121d8565b98975050505050505050565b6000806040838503121561265e5761265d611c25565b5b600061266c85828601611d96565b925050602061267d85828601612090565b9150509250929050565b600060c08201905061269c6000830189612141565b81810360208301526126ae818861219f565b90506126bd60408301876121d8565b6126ca6060830186612141565b81810360808301526126dc818561219f565b905081810360a08301526126f0818461219f565b9050979650505050505050565b60008060006060848603121561271657612715611c25565b5b600084013567ffffffffffffffff81111561273457612733611c2a565b5b61274086828701611d47565b935050602084013567ffffffffffffffff81111561276157612760611c2a565b5b61276d86828701611d47565b925050604084013567ffffffffffffffff81111561278e5761278d611c2a565b5b61279a86828701611d47565b9150509250925092565b600081519050919050565b600082825260208201905092915050565b6000819050602082019050919050565b600082825260208201905092915050565b60006127ec82612150565b6127f681856127d0565b935061280681856020860161216c565b61280f81611c39565b840191505092915050565b61282381612408565b82525050565b61283281612067565b82525050565b600060e0830160008301516128506000860182612327565b506020830151848203602086015261286882826127e1565b915050604083015161287d6040860182612327565b5060608301516128906060860182612327565b50608083015184820360808601526128a882826127e1565b91505060a08301516128bd60a086018261281a565b5060c08301516128d060c0860182612829565b508091505092915050565b60006128e78383612838565b905092915050565b6000602082019050919050565b6000612907826127a4565b61291181856127af565b935083602082028501612923856127c0565b8060005b8581101561295f578484038952815161294085826128db565b945061294b836128ef565b925060208a01995050600181019050612927565b50829750879550505050505092915050565b6000602082019050818103600083015261298b81846128fc565b905092915050565b7f4e487b7100000000000000000000000000000000000000000000000000000000600052601160045260246000fd5b60006129cd82611d75565b91507fffffffffffffffffffffffffffffffffffffffffffffffffffffffffffffffff82036129ff576129fe612993565b5b600182019050919050565b7f4e487b7100000000000000000000000000000000000000000000000000000000600052602260045260246000fd5b60006002820490506001821680612a5157607f821691505b602082108103612a6457612a63612a0a565b5b50919050565b6000612a7582611d75565b9150612a8083611d75565b9250827fffffffffffffffffffffffffffffffffffffffffffffffffffffffffffffffff03821115612ab557612ab4612993565b5b82820190509291505056fea2646970667358221220af2eb9f55343b4ee34e65faecd39936c515519e7275c0940e56ea4668ad826c964736f6c634300080d0033",
  "immutableReferences": {},
  "source": "// SPDX-License-Identifier: MIT\r\npragma solidity >=0.4.22 <0.9.0;\r\nimport \"./product.sol\";\r\nimport \"./farmer.sol\";\r\n//import \"./payment.sol\";\r\ncontract Customer is Farmer{\r\n    uint cnt;\r\n    uint amount;\r\n    struct customer{\r\n        uint customer_id;\r\n        string customer_name;\r\n        address customer_add;\r\n        uint product_feedback;\r\n        uint delivery_feedback;\r\n        address farmer_address;\r\n        string email;\r\n        string location;\r\n        string phone;\r\n        uint[] products;\r\n    }\r\n    \r\n    address[] customers;\r\n    //address [farmer_address][key_id] public \r\n    mapping(address=>customer) public customer_map;\r\n    //stores order price of basket of any customer\r\n    mapping (address=>uint) public order_price_map;\r\n\r\n    \r\n    // constructor(){\r\n    //     customer storage c= customer_map[msg.sender];\r\n    //     c.customer_add=msg.sender;\r\n    // }\r\n\r\n    function setCustomerDetails(string memory _name,string memory _location,string memory _phone,uint _product_feedback,uint _delivery_feedback,\r\n        string memory _email) public{\r\n        customer storage c= customer_map[msg.sender];\r\n        c.customer_add=msg.sender;\r\n        cnt++;\r\n        c.customer_id=cnt;\r\n        c.phone=_phone; \r\n        c.customer_name=_name;\r\n        c.location=_location;\r\n        c.email=_email;\r\n        // c.product_feedback=_product_feedback; to be set after delivery of the product\r\n        // c.delivery_feedback=_delivery_feedback;\r\n    }\r\n\r\n        // function placeOrder(address _to) public\r\n     function addProduct(uint _pid,address _farmer) public{\r\n            customer storage c=customer_map[msg.sender];\r\n            c.farmer_address=_farmer;\r\n            c.products.push(_pid);\r\n            order_price_map[msg.sender]+=product_map[_pid].product_price;\r\n    }\r\n\r\n    function viewProductsCustomer() public view returns (uint[] memory)\r\n    {\r\n\r\n        return customer_map[msg.sender].products;\r\n    }\r\n\r\n    function confirmOrder(address _farmerAddress) public\r\n    {\r\n        customer storage c=customer_map[msg.sender];\r\n        processOrder(c.products,msg.sender,_farmerAddress);\r\n        order storage o = order_map[order_count];\r\n        o.order_price = order_price_map[msg.sender]; \r\n        amount=o.order_price;\r\n    }\r\n    \r\n    // function confirmOrderReceived() public\r\n    // {\r\n    //     customer storage c=customer_map[msg.sender];\r\n    //     farmer storage f=farmer_map[c.farmer_address];\r\n    //     // payment_id++;\r\n    //     // payment storage p=payment_map[payment_id];\r\n    //     p.farmer_Paymentaddress=payable(c.farmer_address);\r\n    //     p.customer_Paymentaddress=payable(msg.sender);\r\n    //     p.delivery_Paymentaddress=payable(f.distributor_add);\r\n    // }\r\n    \r\n    // function initiatePayment(address _to,uint _amount) public\r\n    // {\r\n    //   //  PaymentByCustomer(msg.sender,_amount,_to);\r\n    // }\r\n}",
  "sourcePath": "C:\\Users\\shubh\\OneDrive\\Desktop\\AgriChain\\ASCM\\contracts\\customer.sol",
  "compiler": {
    "name": "solc",
    "version": "0.8.13+commit.abaa5c0e.Emscripten.clang"
  },
  "schemaVersion": "3.4.7",
  "updatedAt": "2022-04-17T05:15:15.402Z",
  "devdoc": {
    "kind": "dev",
    "methods": {},
    "version": 1
  },
  "userdoc": {
    "kind": "user",
    "methods": {},
    "version": 1
  }
}