{
  "contractName": "Distributor",
  "abi": [
    {
      "inputs": [],
      "stateMutability": "nonpayable",
      "type": "constructor"
    },
    {
      "inputs": [
        {
          "internalType": "address",
          "name": "",
          "type": "address"
        }
      ],
      "name": "distributor_map",
      "outputs": [
        {
          "internalType": "uint256",
          "name": "distributor_id",
          "type": "uint256"
        },
        {
          "internalType": "string",
          "name": "distributor_name",
          "type": "string"
        },
        {
          "internalType": "address",
          "name": "distributor_add",
          "type": "address"
        },
        {
          "internalType": "uint256",
          "name": "distributor_rating",
          "type": "uint256"
        },
        {
          "internalType": "string",
          "name": "distributor_phone",
          "type": "string"
        },
        {
          "internalType": "string",
          "name": "distributor_email",
          "type": "string"
        }
      ],
      "stateMutability": "view",
      "type": "function",
      "constant": true
    },
    {
      "inputs": [
        {
          "internalType": "uint256",
          "name": "",
          "type": "uint256"
        }
      ],
      "name": "order_map",
      "outputs": [
        {
          "internalType": "uint256",
          "name": "order_id",
          "type": "uint256"
        },
        {
          "internalType": "uint256",
          "name": "order_price",
          "type": "uint256"
        },
        {
          "internalType": "bool",
          "name": "status",
          "type": "bool"
        },
        {
          "internalType": "address",
          "name": "farmer_address",
          "type": "address"
        },
        {
          "internalType": "address",
          "name": "customer_address",
          "type": "address"
        }
      ],
      "stateMutability": "view",
      "type": "function",
      "constant": true
    },
    {
      "inputs": [
        {
          "internalType": "string",
          "name": "_name",
          "type": "string"
        },
        {
          "internalType": "string",
          "name": "_phone",
          "type": "string"
        },
        {
          "internalType": "string",
          "name": "_email",
          "type": "string"
        }
      ],
      "name": "setDetails",
      "outputs": [],
      "stateMutability": "nonpayable",
      "type": "function"
    }
  ],
  "bytecode": "0x608060405234801561001057600080fd5b506000600360003373ffffffffffffffffffffffffffffffffffffffff1673ffffffffffffffffffffffffffffffffffffffff1681526020019081526020016000209050338160020160006101000a81548173ffffffffffffffffffffffffffffffffffffffff021916908373ffffffffffffffffffffffffffffffffffffffff16021790555050610a22806100a76000396000f3fe608060405234801561001057600080fd5b50600436106100415760003560e01c806388c9a00c14610046578063dec3a6011461007a578063f0da7087146100af575b600080fd5b610060600480360381019061005b91906104e6565b6100cb565b60405161007195949392919061057e565b60405180910390f35b610094600480360381019061008f91906105fd565b61014e565b6040516100a6969594939291906106c3565b60405180910390f35b6100c960048036038101906100c4919061086e565b610342565b005b60016020528060005260406000206000915090508060000154908060010154908060020160009054906101000a900460ff16908060040160009054906101000a900473ffffffffffffffffffffffffffffffffffffffff16908060050160009054906101000a900473ffffffffffffffffffffffffffffffffffffffff16905085565b600360205280600052604060002060009150905080600001549080600101805461017790610944565b80601f01602080910402602001604051908101604052809291908181526020018280546101a390610944565b80156101f05780601f106101c5576101008083540402835291602001916101f0565b820191906000526020600020905b8154815290600101906020018083116101d357829003601f168201915b5050505050908060020160009054906101000a900473ffffffffffffffffffffffffffffffffffffffff169080600301549080600401805461023190610944565b80601f016020809104026020016040519081016040528092919081815260200182805461025d90610944565b80156102aa5780601f1061027f576101008083540402835291602001916102aa565b820191906000526020600020905b81548152906001019060200180831161028d57829003601f168201915b5050505050908060050180546102bf90610944565b80601f01602080910402602001604051908101604052809291908181526020018280546102eb90610944565b80156103385780601f1061030d57610100808354040283529160200191610338565b820191906000526020600020905b81548152906001019060200180831161031b57829003601f168201915b5050505050905086565b6000600360003373ffffffffffffffffffffffffffffffffffffffff1673ffffffffffffffffffffffffffffffffffffffff168152602001908152602001600020905060026000815480929190610398906109a4565b91905055506002548160000181905550838160010190805190602001906103c09291906103f9565b50828160040190805190602001906103d99291906103f9565b50818160050190805190602001906103f29291906103f9565b5050505050565b82805461040590610944565b90600052602060002090601f016020900481019282610427576000855561046e565b82601f1061044057805160ff191683800117855561046e565b8280016001018555821561046e579182015b8281111561046d578251825591602001919060010190610452565b5b50905061047b919061047f565b5090565b5b80821115610498576000816000905550600101610480565b5090565b6000604051905090565b600080fd5b600080fd5b6000819050919050565b6104c3816104b0565b81146104ce57600080fd5b50565b6000813590506104e0816104ba565b92915050565b6000602082840312156104fc576104fb6104a6565b5b600061050a848285016104d1565b91505092915050565b61051c816104b0565b82525050565b60008115159050919050565b61053781610522565b82525050565b600073ffffffffffffffffffffffffffffffffffffffff82169050919050565b60006105688261053d565b9050919050565b6105788161055d565b82525050565b600060a0820190506105936000830188610513565b6105a06020830187610513565b6105ad604083018661052e565b6105ba606083018561056f565b6105c7608083018461056f565b9695505050505050565b6105da8161055d565b81146105e557600080fd5b50565b6000813590506105f7816105d1565b92915050565b600060208284031215610613576106126104a6565b5b6000610621848285016105e8565b91505092915050565b600081519050919050565b600082825260208201905092915050565b60005b83811015610664578082015181840152602081019050610649565b83811115610673576000848401525b50505050565b6000601f19601f8301169050919050565b60006106958261062a565b61069f8185610635565b93506106af818560208601610646565b6106b881610679565b840191505092915050565b600060c0820190506106d86000830189610513565b81810360208301526106ea818861068a565b90506106f9604083018761056f565b6107066060830186610513565b8181036080830152610718818561068a565b905081810360a083015261072c818461068a565b9050979650505050505050565b600080fd5b600080fd5b7f4e487b7100000000000000000000000000000000000000000000000000000000600052604160045260246000fd5b61077b82610679565b810181811067ffffffffffffffff8211171561079a57610799610743565b5b80604052505050565b60006107ad61049c565b90506107b98282610772565b919050565b600067ffffffffffffffff8211156107d9576107d8610743565b5b6107e282610679565b9050602081019050919050565b82818337600083830152505050565b600061081161080c846107be565b6107a3565b90508281526020810184848401111561082d5761082c61073e565b5b6108388482856107ef565b509392505050565b600082601f83011261085557610854610739565b5b81356108658482602086016107fe565b91505092915050565b600080600060608486031215610887576108866104a6565b5b600084013567ffffffffffffffff8111156108a5576108a46104ab565b5b6108b186828701610840565b935050602084013567ffffffffffffffff8111156108d2576108d16104ab565b5b6108de86828701610840565b925050604084013567ffffffffffffffff8111156108ff576108fe6104ab565b5b61090b86828701610840565b9150509250925092565b7f4e487b7100000000000000000000000000000000000000000000000000000000600052602260045260246000fd5b6000600282049050600182168061095c57607f821691505b60208210810361096f5761096e610915565b5b50919050565b7f4e487b7100000000000000000000000000000000000000000000000000000000600052601160045260246000fd5b60006109af826104b0565b91507fffffffffffffffffffffffffffffffffffffffffffffffffffffffffffffffff82036109e1576109e0610975565b5b60018201905091905056fea264697066735822122088f378712142f7c0bc434ed97d8846c5b1b3f00c5b4da3ead4ccdf8f74b509fc64736f6c634300080d0033",
  "immutableReferences": {},
  "source": "// SPDX-License-Identifier: MIT\npragma solidity >=0.4.22 <0.9.0;\nimport \"./order.sol\";\ncontract Distributor is Order{\n    uint distributor_count;\n    struct distributor{\n        uint distributor_id;\n        string distributor_name;\n        address distributor_add;\n        uint distributor_rating;\n        string distributor_phone;\n        string distributor_email;\n        order[] orders;\n    }\n    mapping(address=>distributor) public distributor_map;\n\n    constructor(){\n        distributor storage d = distributor_map[msg.sender];\n        d.distributor_add=msg.sender;\n    }\n    function setDetails(string memory _name,string memory _phone,string memory _email) public{\n        distributor storage d = distributor_map[msg.sender];\n        distributor_count++;\n        d.distributor_id=distributor_count;\n        d.distributor_name=_name;\n        d.distributor_phone=_phone;\n        d.distributor_email=_email;  \n    }\n    \n\n}",
  "sourcePath": "C:\\Users\\HP\\Desktop\\git\\Agriculture-Supply-Chain-Management\\ASCM\\contracts\\distributor.sol",
  "compiler": {
    "name": "solc",
    "version": "0.8.13+commit.abaa5c0e.Emscripten.clang"
  },
  "schemaVersion": "3.4.7",
  "updatedAt": "2022-04-18T08:57:52.645Z",
  "networkType": "ethereum",
  "devdoc": {
    "kind": "dev",
    "methods": {},
    "version": 1
  },
  "userdoc": {
    "kind": "user",
    "methods": {},
    "version": 1
  }
}