{
  "contractName": "Farmer",
  "abi": [
    {
      "inputs": [
        {
          "internalType": "address",
          "name": "",
          "type": "address"
        }
      ],
      "name": "distributor_map",
      "outputs": [
        {
          "internalType": "uint256",
          "name": "distributor_id",
          "type": "uint256"
        },
        {
          "internalType": "string",
          "name": "distributor_name",
          "type": "string"
        },
        {
          "internalType": "address",
          "name": "distributor_add",
          "type": "address"
        },
        {
          "internalType": "uint256",
          "name": "distributor_rating",
          "type": "uint256"
        },
        {
          "internalType": "string",
          "name": "distributor_phone",
          "type": "string"
        },
        {
          "internalType": "string",
          "name": "distributor_email",
          "type": "string"
        }
      ],
      "stateMutability": "view",
      "type": "function"
    },
    {
      "inputs": [
        {
          "internalType": "address",
          "name": "",
          "type": "address"
        }
      ],
      "name": "farmer_map",
      "outputs": [
        {
          "internalType": "uint256",
          "name": "farmer_id",
          "type": "uint256"
        },
        {
          "internalType": "string",
          "name": "farmer_name",
          "type": "string"
        },
        {
          "internalType": "address",
          "name": "farmer_add",
          "type": "address"
        },
        {
          "internalType": "address",
          "name": "distributor_add",
          "type": "address"
        },
        {
          "internalType": "uint256",
          "name": "rating",
          "type": "uint256"
        },
        {
          "internalType": "string",
          "name": "farmer_location",
          "type": "string"
        },
        {
          "internalType": "string",
          "name": "farmer_phone",
          "type": "string"
        },
        {
          "internalType": "string",
          "name": "farmer_email",
          "type": "string"
        }
      ],
      "stateMutability": "view",
      "type": "function"
    },
    {
      "inputs": [
        {
          "internalType": "uint256",
          "name": "",
          "type": "uint256"
        }
      ],
      "name": "order_map",
      "outputs": [
        {
          "internalType": "uint256",
          "name": "order_id",
          "type": "uint256"
        },
        {
          "internalType": "uint256",
          "name": "order_price",
          "type": "uint256"
        },
        {
          "internalType": "bool",
          "name": "status",
          "type": "bool"
        },
        {
          "internalType": "address",
          "name": "farmer_address",
          "type": "address"
        },
        {
          "internalType": "address",
          "name": "customer_address",
          "type": "address"
        }
      ],
      "stateMutability": "view",
      "type": "function"
    },
    {
      "inputs": [
        {
          "internalType": "uint256",
          "name": "",
          "type": "uint256"
        }
      ],
      "name": "product_map",
      "outputs": [
        {
          "internalType": "uint256",
          "name": "product_id",
          "type": "uint256"
        },
        {
          "internalType": "string",
          "name": "product_name",
          "type": "string"
        },
        {
          "internalType": "uint256",
          "name": "product_price",
          "type": "uint256"
        },
        {
          "internalType": "uint256",
          "name": "product_amount",
          "type": "uint256"
        },
        {
          "internalType": "string",
          "name": "product_category",
          "type": "string"
        },
        {
          "internalType": "bool",
          "name": "isAuthorised",
          "type": "bool"
        },
        {
          "internalType": "address",
          "name": "owner",
          "type": "address"
        }
      ],
      "stateMutability": "view",
      "type": "function"
    },
    {
      "inputs": [
        {
          "internalType": "string",
          "name": "_name",
          "type": "string"
        },
        {
          "internalType": "string",
          "name": "_phone",
          "type": "string"
        },
        {
          "internalType": "string",
          "name": "_email",
          "type": "string"
        }
      ],
      "name": "setDetails",
      "outputs": [],
      "stateMutability": "nonpayable",
      "type": "function"
    },
    {
      "inputs": [
        {
          "internalType": "string",
          "name": "_name",
          "type": "string"
        },
        {
          "internalType": "string",
          "name": "_location",
          "type": "string"
        },
        {
          "internalType": "string",
          "name": "_phone",
          "type": "string"
        },
        {
          "internalType": "string",
          "name": "_email",
          "type": "string"
        }
      ],
      "name": "setFarmerDetails",
      "outputs": [],
      "stateMutability": "nonpayable",
      "type": "function"
    },
    {
      "inputs": [
        {
          "internalType": "address payable",
          "name": "_distributorAddress",
          "type": "address"
        }
      ],
      "name": "setDistributor",
      "outputs": [],
      "stateMutability": "nonpayable",
      "type": "function"
    },
    {
      "inputs": [
        {
          "internalType": "string",
          "name": "_name",
          "type": "string"
        },
        {
          "internalType": "uint256",
          "name": "_price",
          "type": "uint256"
        },
        {
          "internalType": "string",
          "name": "_category",
          "type": "string"
        },
        {
          "internalType": "uint256",
          "name": "_amount",
          "type": "uint256"
        }
      ],
      "name": "createProduct",
      "outputs": [],
      "stateMutability": "nonpayable",
      "type": "function"
    },
    {
      "inputs": [],
      "name": "viewProductsFarmer",
      "outputs": [
        {
          "components": [
            {
              "internalType": "uint256",
              "name": "product_id",
              "type": "uint256"
            },
            {
              "internalType": "string",
              "name": "product_name",
              "type": "string"
            },
            {
              "internalType": "uint256",
              "name": "product_price",
              "type": "uint256"
            },
            {
              "internalType": "uint256",
              "name": "product_amount",
              "type": "uint256"
            },
            {
              "internalType": "string",
              "name": "product_category",
              "type": "string"
            },
            {
              "internalType": "bool",
              "name": "isAuthorised",
              "type": "bool"
            },
            {
              "internalType": "address",
              "name": "owner",
              "type": "address"
            }
          ],
          "internalType": "struct Product.product[]",
          "name": "",
          "type": "tuple[]"
        }
      ],
      "stateMutability": "view",
      "type": "function"
    },
    {
      "inputs": [
        {
          "internalType": "uint256[]",
          "name": "_products",
          "type": "uint256[]"
        },
        {
          "internalType": "address",
          "name": "_customerAddress",
          "type": "address"
        },
        {
          "internalType": "address",
          "name": "_farmerAddress",
          "type": "address"
        }
      ],
      "name": "processOrder",
      "outputs": [],
      "stateMutability": "nonpayable",
      "type": "function"
    }
  ],
  "bytecode": "0x608060405234801561001057600080fd5b506000600560003373ffffffffffffffffffffffffffffffffffffffff1673ffffffffffffffffffffffffffffffffffffffff1681526020019081526020016000209050338160020160006101000a81548173ffffffffffffffffffffffffffffffffffffffff021916908373ffffffffffffffffffffffffffffffffffffffff16021790555050611feb806100a76000396000f3fe608060405234801561001057600080fd5b506004361061009e5760003560e01c8063a06fc34611610066578063a06fc34614610162578063c013435f1461017e578063dec3a601146101b4578063f0da7087146101e9578063ffdf3452146102055761009e565b806335e0e59e146100a35780635fc412ec146100bf57806375619ab5146100db57806388c9a00c146100f75780638fdbffe71461012b575b600080fd5b6100bd60048036038101906100b89190611592565b610223565b005b6100d960048036038101906100d491906117c5565b610337565b005b6100f560048036038101906100f09190611872565b610610565b005b610111600480360381019061010c919061189f565b61069a565b604051610122959493929190611905565b60405180910390f35b61014560048036038101906101409190611958565b61071d565b604051610159989796959493929190611a0d565b60405180910390f35b61017c60048036038101906101779190611aa7565b6109c5565b005b6101986004803603810190610193919061189f565b610bed565b6040516101ab9796959493929190611b46565b60405180910390f35b6101ce60048036038101906101c99190611958565b610d6c565b6040516101e096959493929190611bc3565b60405180910390f35b61020360048036038101906101fe9190611c39565b610f60565b005b61020d611017565b60405161021a9190611ebc565b60405180910390f35b6000600760003373ffffffffffffffffffffffffffffffffffffffff1673ffffffffffffffffffffffffffffffffffffffff1681526020019081526020016000209050338160020160006101000a81548173ffffffffffffffffffffffffffffffffffffffff021916908373ffffffffffffffffffffffffffffffffffffffff160217905550600660008154809291906102bc90611f0d565b9190505550818160070190805190602001906102d9929190611269565b506006548160000181905550828160060190805190602001906102fd929190611269565b5084816001019080519060200190610316929190611269565b508381600501908051906020019061032f929190611269565b505050505050565b6002600081548092919061034a90611f0d565b91905055506000600760008373ffffffffffffffffffffffffffffffffffffffff1673ffffffffffffffffffffffffffffffffffffffff1681526020019081526020016000209050600060036000600254815260200190815260200160002090506002548160000181905550838160050160006101000a81548173ffffffffffffffffffffffffffffffffffffffff021916908373ffffffffffffffffffffffffffffffffffffffff160217905550828160040160006101000a81548173ffffffffffffffffffffffffffffffffffffffff021916908373ffffffffffffffffffffffffffffffffffffffff160217905550848160030190805190602001906104549291906112ef565b506000600560008460030160009054906101000a900473ffffffffffffffffffffffffffffffffffffffff1673ffffffffffffffffffffffffffffffffffffffff1673ffffffffffffffffffffffffffffffffffffffff1681526020019081526020016000209050818160060160018160018154018082558091505003906000526020600020906006020160008201548160000155600182015481600101556002820160009054906101000a900460ff168160020160006101000a81548160ff021916908315150217905550600382018160030190805461053692919061133c565b506004820160009054906101000a900473ffffffffffffffffffffffffffffffffffffffff168160040160006101000a81548173ffffffffffffffffffffffffffffffffffffffff021916908373ffffffffffffffffffffffffffffffffffffffff1602179055506005820160009054906101000a900473ffffffffffffffffffffffffffffffffffffffff168160050160006101000a81548173ffffffffffffffffffffffffffffffffffffffff021916908373ffffffffffffffffffffffffffffffffffffffff160217905550905050505050505050565b6000600760003373ffffffffffffffffffffffffffffffffffffffff1673ffffffffffffffffffffffffffffffffffffffff1681526020019081526020016000209050818160030160006101000a81548173ffffffffffffffffffffffffffffffffffffffff021916908373ffffffffffffffffffffffffffffffffffffffff1602179055505050565b60036020528060005260406000206000915090508060000154908060010154908060020160009054906101000a900460ff16908060040160009054906101000a900473ffffffffffffffffffffffffffffffffffffffff16908060050160009054906101000a900473ffffffffffffffffffffffffffffffffffffffff16905085565b600760205280600052604060002060009150905080600001549080600101805461074690611f84565b80601f016020809104026020016040519081016040528092919081815260200182805461077290611f84565b80156107bf5780601f10610794576101008083540402835291602001916107bf565b820191906000526020600020905b8154815290600101906020018083116107a257829003601f168201915b5050505050908060020160009054906101000a900473ffffffffffffffffffffffffffffffffffffffff16908060030160009054906101000a900473ffffffffffffffffffffffffffffffffffffffff169080600401549080600501805461082690611f84565b80601f016020809104026020016040519081016040528092919081815260200182805461085290611f84565b801561089f5780601f106108745761010080835404028352916020019161089f565b820191906000526020600020905b81548152906001019060200180831161088257829003601f168201915b5050505050908060060180546108b490611f84565b80601f01602080910402602001604051908101604052809291908181526020018280546108e090611f84565b801561092d5780601f106109025761010080835404028352916020019161092d565b820191906000526020600020905b81548152906001019060200180831161091057829003601f168201915b50505050509080600701805461094290611f84565b80601f016020809104026020016040519081016040528092919081815260200182805461096e90611f84565b80156109bb5780601f10610990576101008083540402835291602001916109bb565b820191906000526020600020905b81548152906001019060200180831161099e57829003601f168201915b5050505050905088565b6000808154809291906109d790611f0d565b9190505550600060016000805481526020019081526020016000209050600054816000018190555084816001019080519060200190610a17929190611269565b50818160030181905550838160020181905550338160050160016101000a81548173ffffffffffffffffffffffffffffffffffffffff021916908373ffffffffffffffffffffffffffffffffffffffff16021790555082816004019080519060200190610a85929190611269565b50600760003373ffffffffffffffffffffffffffffffffffffffff1673ffffffffffffffffffffffffffffffffffffffff168152602001908152602001600020600801819080600181540180825580915050600190039060005260206000209060060201600090919091909150600082015481600001556001820181600101908054610b1090611f84565b610b1b92919061138e565b5060028201548160020155600382015481600301556004820181600401908054610b4490611f84565b610b4f92919061138e565b506005820160009054906101000a900460ff168160050160006101000a81548160ff0219169083151502179055506005820160019054906101000a900473ffffffffffffffffffffffffffffffffffffffff168160050160016101000a81548173ffffffffffffffffffffffffffffffffffffffff021916908373ffffffffffffffffffffffffffffffffffffffff16021790555050505050505050565b6001602052806000526040600020600091509050806000015490806001018054610c1690611f84565b80601f0160208091040260200160405190810160405280929190818152602001828054610c4290611f84565b8015610c8f5780601f10610c6457610100808354040283529160200191610c8f565b820191906000526020600020905b815481529060010190602001808311610c7257829003601f168201915b505050505090806002015490806003015490806004018054610cb090611f84565b80601f0160208091040260200160405190810160405280929190818152602001828054610cdc90611f84565b8015610d295780601f10610cfe57610100808354040283529160200191610d29565b820191906000526020600020905b815481529060010190602001808311610d0c57829003601f168201915b5050505050908060050160009054906101000a900460ff16908060050160019054906101000a900473ffffffffffffffffffffffffffffffffffffffff16905087565b6005602052806000526040600020600091509050806000015490806001018054610d9590611f84565b80601f0160208091040260200160405190810160405280929190818152602001828054610dc190611f84565b8015610e0e5780601f10610de357610100808354040283529160200191610e0e565b820191906000526020600020905b815481529060010190602001808311610df157829003601f168201915b5050505050908060020160009054906101000a900473ffffffffffffffffffffffffffffffffffffffff1690806003015490806004018054610e4f90611f84565b80601f0160208091040260200160405190810160405280929190818152602001828054610e7b90611f84565b8015610ec85780601f10610e9d57610100808354040283529160200191610ec8565b820191906000526020600020905b815481529060010190602001808311610eab57829003601f168201915b505050505090806005018054610edd90611f84565b80601f0160208091040260200160405190810160405280929190818152602001828054610f0990611f84565b8015610f565780601f10610f2b57610100808354040283529160200191610f56565b820191906000526020600020905b815481529060010190602001808311610f3957829003601f168201915b5050505050905086565b6000600560003373ffffffffffffffffffffffffffffffffffffffff1673ffffffffffffffffffffffffffffffffffffffff168152602001908152602001600020905060046000815480929190610fb690611f0d565b9190505550600454816000018190555083816001019080519060200190610fde929190611269565b5082816004019080519060200190610ff7929190611269565b5081816005019080519060200190611010929190611269565b5050505050565b6060600760003373ffffffffffffffffffffffffffffffffffffffff1673ffffffffffffffffffffffffffffffffffffffff168152602001908152602001600020600801805480602002602001604051908101604052809291908181526020016000905b8282101561126057838290600052602060002090600602016040518060e0016040529081600082015481526020016001820180546110b890611f84565b80601f01602080910402602001604051908101604052809291908181526020018280546110e490611f84565b80156111315780601f1061110657610100808354040283529160200191611131565b820191906000526020600020905b81548152906001019060200180831161111457829003601f168201915b50505050508152602001600282015481526020016003820154815260200160048201805461115e90611f84565b80601f016020809104026020016040519081016040528092919081815260200182805461118a90611f84565b80156111d75780601f106111ac576101008083540402835291602001916111d7565b820191906000526020600020905b8154815290600101906020018083116111ba57829003601f168201915b505050505081526020016005820160009054906101000a900460ff161515151581526020016005820160019054906101000a900473ffffffffffffffffffffffffffffffffffffffff1673ffffffffffffffffffffffffffffffffffffffff1673ffffffffffffffffffffffffffffffffffffffff16815250508152602001906001019061107b565b50505050905090565b82805461127590611f84565b90600052602060002090601f01602090048101928261129757600085556112de565b82601f106112b057805160ff19168380011785556112de565b828001600101855582156112de579182015b828111156112dd5782518255916020019190600101906112c2565b5b5090506112eb919061141b565b5090565b82805482825590600052602060002090810192821561132b579160200282015b8281111561132a57825182559160200191906001019061130f565b5b509050611338919061141b565b5090565b82805482825590600052602060002090810192821561137d5760005260206000209182015b8281111561137c578254825591600101919060010190611361565b5b50905061138a919061141b565b5090565b82805461139a90611f84565b90600052602060002090601f0160209004810192826113bc576000855561140a565b82601f106113cd578054855561140a565b8280016001018555821561140a57600052602060002091601f016020900482015b828111156114095782548255916001019190600101906113ee565b5b509050611417919061141b565b5090565b5b8082111561143457600081600090555060010161141c565b5090565b6000604051905090565b600080fd5b600080fd5b600080fd5b600080fd5b6000601f19601f8301169050919050565b7f4e487b7100000000000000000000000000000000000000000000000000000000600052604160045260246000fd5b61149f82611456565b810181811067ffffffffffffffff821117156114be576114bd611467565b5b80604052505050565b60006114d1611438565b90506114dd8282611496565b919050565b600067ffffffffffffffff8211156114fd576114fc611467565b5b61150682611456565b9050602081019050919050565b82818337600083830152505050565b6000611535611530846114e2565b6114c7565b90508281526020810184848401111561155157611550611451565b5b61155c848285611513565b509392505050565b600082601f8301126115795761157861144c565b5b8135611589848260208601611522565b91505092915050565b600080600080608085870312156115ac576115ab611442565b5b600085013567ffffffffffffffff8111156115ca576115c9611447565b5b6115d687828801611564565b945050602085013567ffffffffffffffff8111156115f7576115f6611447565b5b61160387828801611564565b935050604085013567ffffffffffffffff81111561162457611623611447565b5b61163087828801611564565b925050606085013567ffffffffffffffff81111561165157611650611447565b5b61165d87828801611564565b91505092959194509250565b600067ffffffffffffffff82111561168457611683611467565b5b602082029050602081019050919050565b600080fd5b6000819050919050565b6116ad8161169a565b81146116b857600080fd5b50565b6000813590506116ca816116a4565b92915050565b60006116e36116de84611669565b6114c7565b9050808382526020820190506020840283018581111561170657611705611695565b5b835b8181101561172f578061171b88826116bb565b845260208401935050602081019050611708565b5050509392505050565b600082601f83011261174e5761174d61144c565b5b813561175e8482602086016116d0565b91505092915050565b600073ffffffffffffffffffffffffffffffffffffffff82169050919050565b600061179282611767565b9050919050565b6117a281611787565b81146117ad57600080fd5b50565b6000813590506117bf81611799565b92915050565b6000806000606084860312156117de576117dd611442565b5b600084013567ffffffffffffffff8111156117fc576117fb611447565b5b61180886828701611739565b9350506020611819868287016117b0565b925050604061182a868287016117b0565b9150509250925092565b600061183f82611767565b9050919050565b61184f81611834565b811461185a57600080fd5b50565b60008135905061186c81611846565b92915050565b60006020828403121561188857611887611442565b5b60006118968482850161185d565b91505092915050565b6000602082840312156118b5576118b4611442565b5b60006118c3848285016116bb565b91505092915050565b6118d58161169a565b82525050565b60008115159050919050565b6118f0816118db565b82525050565b6118ff81611787565b82525050565b600060a08201905061191a60008301886118cc565b61192760208301876118cc565b61193460408301866118e7565b61194160608301856118f6565b61194e60808301846118f6565b9695505050505050565b60006020828403121561196e5761196d611442565b5b600061197c848285016117b0565b91505092915050565b600081519050919050565b600082825260208201905092915050565b60005b838110156119bf5780820151818401526020810190506119a4565b838111156119ce576000848401525b50505050565b60006119df82611985565b6119e98185611990565b93506119f98185602086016119a1565b611a0281611456565b840191505092915050565b600061010082019050611a23600083018b6118cc565b8181036020830152611a35818a6119d4565b9050611a4460408301896118f6565b611a5160608301886118f6565b611a5e60808301876118cc565b81810360a0830152611a7081866119d4565b905081810360c0830152611a8481856119d4565b905081810360e0830152611a9881846119d4565b90509998505050505050505050565b60008060008060808587031215611ac157611ac0611442565b5b600085013567ffffffffffffffff811115611adf57611ade611447565b5b611aeb87828801611564565b9450506020611afc878288016116bb565b935050604085013567ffffffffffffffff811115611b1d57611b1c611447565b5b611b2987828801611564565b9250506060611b3a878288016116bb565b91505092959194509250565b600060e082019050611b5b600083018a6118cc565b8181036020830152611b6d81896119d4565b9050611b7c60408301886118cc565b611b8960608301876118cc565b8181036080830152611b9b81866119d4565b9050611baa60a08301856118e7565b611bb760c08301846118f6565b98975050505050505050565b600060c082019050611bd860008301896118cc565b8181036020830152611bea81886119d4565b9050611bf960408301876118f6565b611c0660608301866118cc565b8181036080830152611c1881856119d4565b905081810360a0830152611c2c81846119d4565b9050979650505050505050565b600080600060608486031215611c5257611c51611442565b5b600084013567ffffffffffffffff811115611c7057611c6f611447565b5b611c7c86828701611564565b935050602084013567ffffffffffffffff811115611c9d57611c9c611447565b5b611ca986828701611564565b925050604084013567ffffffffffffffff811115611cca57611cc9611447565b5b611cd686828701611564565b9150509250925092565b600081519050919050565b600082825260208201905092915050565b6000819050602082019050919050565b611d158161169a565b82525050565b600082825260208201905092915050565b6000611d3782611985565b611d418185611d1b565b9350611d518185602086016119a1565b611d5a81611456565b840191505092915050565b611d6e816118db565b82525050565b611d7d81611787565b82525050565b600060e083016000830151611d9b6000860182611d0c565b5060208301518482036020860152611db38282611d2c565b9150506040830151611dc86040860182611d0c565b506060830151611ddb6060860182611d0c565b5060808301518482036080860152611df38282611d2c565b91505060a0830151611e0860a0860182611d65565b5060c0830151611e1b60c0860182611d74565b508091505092915050565b6000611e328383611d83565b905092915050565b6000602082019050919050565b6000611e5282611ce0565b611e5c8185611ceb565b935083602082028501611e6e85611cfc565b8060005b85811015611eaa5784840389528151611e8b8582611e26565b9450611e9683611e3a565b925060208a01995050600181019050611e72565b50829750879550505050505092915050565b60006020820190508181036000830152611ed68184611e47565b905092915050565b7f4e487b7100000000000000000000000000000000000000000000000000000000600052601160045260246000fd5b6000611f188261169a565b91507fffffffffffffffffffffffffffffffffffffffffffffffffffffffffffffffff8203611f4a57611f49611ede565b5b600182019050919050565b7f4e487b7100000000000000000000000000000000000000000000000000000000600052602260045260246000fd5b60006002820490506001821680611f9c57607f821691505b602082108103611faf57611fae611f55565b5b5091905056fea2646970667358221220dbbfc52edef0a2d534ff405477b3e8330599e496b8ba7544baff1098f40e984364736f6c634300080d0033",
  "immutableReferences": {},
  "source": "// SPDX-License-Identifier: MIT\r\npragma solidity >=0.4.22 <0.9.0;\r\nimport \"./product.sol\";\r\nimport \"./order.sol\";\r\nimport \"./customer.sol\";\r\nimport \"./distributor.sol\";\r\ncontract Farmer is Product,Distributor{\r\n    uint farmer_count;\r\n    struct farmer{\r\n        uint farmer_id;\r\n        string farmer_name;\r\n        address farmer_add;\r\n        address distributor_add;\r\n        uint rating;\r\n        string farmer_location;\r\n        string farmer_phone;\r\n        string farmer_email;\r\n        product[] farmer_product;\r\n    }\r\n    //address[] farmerAddress;\r\n    //mapping for all products of farmer using it's address\r\n    //mapping(address=>product[]) farmers_products_map;\r\n    mapping(address=>farmer) public farmer_map;\r\n    // constructor(){\r\n    //     farmer storage f= farmer_map[msg.sender];\r\n    //     f.farmer_add=msg.sender;\r\n    // }\r\n\r\n    //OK\r\n    function setFarmerDetails(string memory _name,string memory _location,string memory _phone,string memory _email) public{\r\n        farmer storage f= farmer_map[msg.sender];\r\n        f.farmer_add=msg.sender;\r\n        farmer_count++;\r\n        f.farmer_email=_email;\r\n        f.farmer_id=farmer_count;\r\n        f.farmer_phone=_phone;\r\n        f.farmer_name=_name;\r\n        f.farmer_location=_location;\r\n    }\r\n    //OK\r\n    function setDistributor(address payable _distributorAddress) public\r\n    {\r\n        farmer storage f= farmer_map[msg.sender];\r\n        f.distributor_add=_distributorAddress;\r\n    }\r\n        // function placeOrder(address _to) public\r\n        //OK\r\n    function createProduct(string memory _name,uint _price,string memory _category,uint _amount) public{\r\n            pid++;\r\n            product storage p=product_map[pid];\r\n            p.product_id=pid;\r\n            p.product_name=_name;\r\n            p.product_amount=_amount;\r\n            p.product_price=_price;\r\n            p.owner=msg.sender;\r\n            p.product_category=_category;\r\n            farmer_map[msg.sender].farmer_product.push(p);\r\n    }\r\n    //OK\r\n    function viewProductsFarmer() public view returns (product[] memory)\r\n    {\r\n        return farmer_map[msg.sender].farmer_product;\r\n    }\r\n\r\n    function processOrder(uint[] memory _products, address _customerAddress,address _farmerAddress) public{\r\n            order_count++;\r\n            farmer storage f=farmer_map[_farmerAddress];\r\n            order storage o = order_map[order_count];\r\n            o.order_id=order_count;\r\n            //o.order_price = order_price_map[_customerAddress]; \r\n            o.customer_address=_customerAddress;\r\n            o.farmer_address=_farmerAddress;\r\n            o.product_items=_products;\r\n            distributor storage d=distributor_map[f.distributor_add];\r\n            d.orders.push()=o;\r\n    }\r\n}",
  "sourcePath": "C:\\Users\\shubh\\OneDrive\\Desktop\\AgriChain\\ASCM\\contracts\\farmer.sol",
  "compiler": {
    "name": "solc",
    "version": "0.8.13+commit.abaa5c0e.Emscripten.clang"
  },
  "schemaVersion": "3.4.7",
  "updatedAt": "2022-04-17T05:15:15.424Z",
  "devdoc": {
    "kind": "dev",
    "methods": {},
    "version": 1
  },
  "userdoc": {
    "kind": "user",
    "methods": {},
    "version": 1
  }
}